:100000000C942A000C943F000C943F000C943F0089
:100010000C943F000C943F000C943F000C943F0064
:100020000C943F000C943F000C943F000C943F0054
:100030000C943F000C943F000C943F000C943F0044
:100040000C943F000C943F000C943F000C943F0034
:100050000C943F0011241FBECFE5D8E0DEBFCDBF1A
:1000600011E0A0E6B0E0E6E4F7E002C005900D92F2
:10007000AA3EB107D9F70E94D5010C94A1030C94B4
:1000800000000E94890308950E949D030895CF9364
:10009000C82F40E061E081E00E94040340E062E09C
:1000A00081E00E94040340E063E081E00E940403D9
:1000B0008BB38F709C2F907F892B8BBB41E063E0CB
:1000C00081E00E9404038FEC97E00197F1F700C0F4
:1000D000000040E063E081E00E9404038BB3282F1E
:1000E0002F7030E1C39FC0011124822B8BBB41E0F4
:1000F00063E081E00E9404038FEC97E00197F1F741
:1001000000C0000040E063E081E00E9404038FE053
:1001100097E20197F1F700C00000CF91089541E008
:1001200061E081E00E94930241E062E081E00E9490
:10013000930241E063E081E00E94930241E064E0C9
:1001400080E00E94930241E065E080E00E9493021B
:1001500041E066E080E00E94930241E067E080E0D9
:100160000E9493022FEF80E792E021508040904060
:10017000E1F700C0000083E30E94470082E30E9491
:10018000470088E20E9447008CE00E94470081E01F
:100190000E94470086E00E94470082E00E944700DC
:1001A0000895CF93C82F41E061E081E00E940403ED
:1001B00040E062E081E00E94040340E063E081E00F
:1001C0000E9404038BB38F709C2F907F892B8BBB75
:1001D00041E063E081E00E9404038FEC97E0019727
:1001E000F1F700C0000040E063E081E00E940403FA
:1001F0008BB3282F2F7030E1C39FC0011124822BB5
:100200008BBB41E063E081E00E9404038FEC97E048
:100210000197F1F700C0000040E063E081E00E9438
:1002200004038FE097E20197F1F700C00000CF913F
:100230000895CF93DF9300D0CDB7DEB790E89983D0
:1002400090EC9A83FE01E80FF11D8181860F0E94D8
:1002500047000F900F90DF91CF9108950F931F9358
:10026000CF93FC018081882359F08F01C0E00E9468
:10027000D100CF5FF801EC0FF11D80818111F7CF24
:10028000CF911F910F91089581E00E9447008FE95F
:100290009FE00197F1F700C0000080E80E9447004E
:1002A000089580E690E00E942E012FEF89E698E104
:1002B000215080409040E1F700C0000080EC0E9497
:1002C000470081E790E00E942E012FEF8DE399E433
:1002D000215080409040E1F700C000000E9444019E
:1002E00082E890E00E942E0180EC0E94470083E9A2
:1002F00090E00E942E012FEF8DE399E42150804081
:100300009040E1F700C000000E94440160E080E0FE
:100310000E94190184EA90E00E942E0180EC0E9464
:10032000470085EB90E00E942E012FEF8DE399E4CA
:10033000215080409040E1F700C000000E9444013D
:1003400060E080E00E94190186EC90E00E942E019E
:1003500080EC0E94470086ED90E00E942E012FEF76
:100360008DE399E4215080409040E1F700C0000007
:100370000E94440160E080E00E94190186EE90E056
:100380000E942E0180EC0E94470085EF90E00E94C1
:100390002E012FEF8DE399E4215080409040E1F74A
:1003A00000C000000E94440108950E948F000E9436
:1003B00075030E9441000E9483032FEF89E698E1B4
:1003C000215080409040E1F700C000000E945101A0
:1003D0000E9444008433E1F128F4813369F08233D0
:1003E00009F18EC0873309F45FC0883309F472C005
:1003F000853309F085C042C081E30E947E030E94DC
:10040000440160E080E00E94190184E091E00E94D4
:100410002E0160E081E00E94190185E191E00E94D7
:100420002E01D6CF82E30E947E030E94440160E049
:1004300080E00E94190185E291E00E942E0160E0B7
:1004400081E00E94190186E391E00E942E01C0CF55
:1004500084E30E947E030E94440160E080E00E94E9
:10046000190186E491E00E942E0160E081E00E9483
:10047000190187E591E00E942E01AACF85E30E9431
:100480007E030E94440160E080E00E94190186E63C
:1004900091E00E942E0160E081E00E94190187E74F
:1004A00091E00E942E0194CF87E30E947E030E9478
:1004B000440160E080E00E94190187E891E00E9419
:1004C0002E0160E081E00E94190188E991E00E941C
:1004D0002E017ECF88E30E947E030E94440160E0EB
:1004E00080E00E94190188EA91E00E942E0160E0FC
:1004F00081E00E94190189EB91E00E942E0168CFF2
:100500000E94440160E080E00E94190189EC91E0C2
:100510000E942E0160E081E00E94190189ED91E0C6
:100520000E942E0155CF442319F04130C9F108959E
:10053000813091F028F08230D9F0833029F108958C
:100540002AB381E090E002C0880F991F6A95E2F714
:10055000809582238ABB089527B381E090E002C092
:10056000880F991F6A95E2F78095822387BB0895CB
:1005700024B381E090E002C0880F991F6A95E2F7EA
:100580008095822384BB089521B381E090E002C06E
:10059000880F991F6A95E2F78095822381BB0895A1
:1005A000813089F028F08230C9F0833011F108954C
:1005B0002AB381E090E002C0880F991F6A95E2F7A4
:1005C000822B8ABB089527B381E090E002C0880F98
:1005D000991F6A95E2F7822B87BB089524B381E0C7
:1005E00090E002C0880F991F6A95E2F7822B84BBC6
:1005F000089521B381E090E002C0880F991F6A95A9
:10060000E2F7822B81BB0895442319F04130C9F1F0
:100610000895813091F028F08230D9F0833029F1AB
:1006200008952BB381E090E002C0880F991F6A956E
:10063000E2F7809582238BBB089528B381E090E098
:1006400002C0880F991F6A95E2F78095822388BBC4
:10065000089525B381E090E002C0880F991F6A9544
:10066000E2F78095822385BB089522B381E090E074
:1006700002C0880F991F6A95E2F78095822382BB9A
:100680000895813089F028F08230C9F0833011F16B
:1006900008952BB381E090E002C0880F991F6A95FE
:1006A000E2F7822B8BBB089528B381E090E002C073
:1006B000880F991F6A95E2F7822B88BB089525B3AE
:1006C00081E090E002C0880F991F6A95E2F7822BC3
:1006D00085BB089522B381E090E002C0880F991F86
:1006E0006A95E2F7822B82BB089587B3806B87BB44
:1006F000BE98C49A83E58DB9709808958FB9779B99
:10070000FECF8FB1089540E064E081E00E940403D1
:10071000089540E060E083E00E94930241E061E0E0
:1007200083E00E9493028AB188618AB980B58668A5
:1007300080BD83E389B910BC08955F9BFECF8CB167
:060740000895F894FFCFBC
:100746002A2A2057656C636F6D6520546F202A2A0C
:10075600002A204D795F536D617274486F6D652074
:100766002A00202020456E7465722020596F75720C
:10077600202000202043686F6963652020285E5F83
:100786005E2920002731273A4C45445F5455524E86
:100796005F4F4E20002732273A4C45445F5455524E
:1007A6004E5F4F6666002734273A54565F545552BB
:1007B6004E5F4F4E20002735273A54565F54555208
:1007C6004E5F4F6666002737273A446F6F725F4F5A
:1007D60070656E20002738273A446F6F725F436C4E
:1007E6006F736500596F7520507265737365642069
:1007F600202731270020204C45445F5455524E5F38
:100806004F4E202000596F752050726573736564D2
:1008160020202732270020204C45445F5455524E55
:100826005F4F46462000596F752050726573736599
:1008360064202027342700202054565F5455524EFA
:100846005F4F4E202000596F752050726573736597
:1008560064202027352700202054565F5455524ED9
:100866005F4F4646202000596F752050726573739E
:100876006564202027372700202020444F4F525FF1
:100886004F50454E20202000596F752050726573D9
:10089600736564202027382700202020444F4F52BC
:1008A6005F434C4F53452020002020596F75205040
:1008B6007265737365642020002057726F6E67201F
:0A08C6002043686F6963652000009D
:00000001FF
