S02B0000412E5761686565645F536D617274486F6D655F50726F6A656374204D43322028534C415645292E7383
S11300000C942A000C9447000C9447000C9447006D
S11300100C9447000C9447000C9447000C946C001B
S11300200C9447000C9447000C9447000C94470030
S11300300C9447000C9447000C9447000C94470020
S11300400C9447000C9447000C9447000C94470010
S11300500C94470011241FBECFE5D8E0DEBFCDBF0E
S113006010E0A0E6B0E0ECE7F3E002C005900D92EA
S1130070A236B107D9F720E0A2E6B0E001C01D9294
S1130080A436B207E1F70E94A5000C94BC010C94BD
S1130090000041E061E082E00E94CE0041E060E0C7
S11300A082E00E94CE00089541E061E082E00E9477
S11300B03F01089540E061E082E00E943F0108951D
S11300C041E060E082E00E943F01089540E060E08A
S11300D082E00E943F0108951F920F920FB60F9283
S11300E011248F939F9380916000813099F48091C3
S11300F06300882339F01092630087E39AE49BBD80
S11301008ABD1CC081E08093630087EE93E09BBDB1
S11301108ABD14C0811112C080916200882339F015
S11301201092620083E498E49BBD8ABD07C081E01D
S1130130809362008BED95E09BBD8ABD9F918F916A
S11301400F900FBE0F901F9018950E94B0010E944F
S11301504900C1E080E00E94B701843399F028F49B
S1130160813351F0823359F0F5CF873389F08833E6
S113017091F0853379F709C00E945400EBCF0E94B7
S11301805A00E8CF0E946000E5CF0E946600E2CFEB
S113019010926000DFCFC0936000DCCF442319F0DD
S11301A04130C9F10895813091F028F08230D9F0BE
S11301B0833029F108952AB381E090E002C0880FCA
S11301C0991F6A95E2F7809582238ABB089527B325
S11301D081E090E002C0880F991F6A95E2F780954C
S11301E0822387BB089524B381E090E002C0880F86
S11301F0991F6A95E2F78095822384BB089521B301
S113020081E090E002C0880F991F6A95E2F780951B
S1130210822381BB0895813089F028F08230C9F0AF
S1130220833011F108952AB381E090E002C0880F71
S1130230991F6A95E2F7822B8ABB089527B381E060
S113024090E002C0880F991F6A95E2F7822B87BB62
S1130250089524B381E090E002C0880F991F6A9545
S1130260E2F7822B84BB089521B381E090E002C0C1
S1130270880F991F6A95E2F7822B81BB0895442366
S113028019F04130C9F10895813091F028F082309D
S1130290D9F0833029F108952BB381E090E002C0B6
S11302A0880F991F6A95E2F7809582238BBB089586
S11302B028B381E090E002C0880F991F6A95E2F7A5
S11302C08095822388BB089525B381E090E002C025
S11302D0880F991F6A95E2F78095822385BB08955C
S11302E022B381E090E002C0880F991F6A95E2F77B
S11302F08095822382BB0895813089F028F0823072
S1130300C9F0833011F108952BB381E090E002C06D
S1130310880F991F6A95E2F7822B8BBB089528B347
S113032081E090E002C0880F991F6A95E2F7822B62
S113033088BB089525B381E090E002C0880F991F1F
S11303406A95E2F7822B85BB089522B381E090E0A1
S113035002C0880F991F6A95E2F7822B82BB089529
S113036087B38F7487BBBE9A80E48DB908958FB923
S10F0370779BFECF8FB10895F894FFCF67
S105037C01007A
S9030000FC
